:0400000066EF00F0B7
:0C000800FACF18F0FBCF19F090EF01F0D8
:10001800D8CF07F0E8CF08F0E0CF09F0FACF0AF020
:10002800FBCF0BF0E9CF0CF0EACF0DF0E1CF0EF0EB
:10003800E2CF0FF0D9CF10F0DACF11F0F3CF12F0F2
:10004800F4CF13F0F6CF14F0F7CF15F0F8CF16F081
:10005800F5CF17F0A3B4A4A401D0A49477A009D035
:10006800779067CF02F068CF03F06650EDEC01F0AF
:10007800609E77A204D077920F010F01309F17C0BE
:10008800F5FF16C0F8FF15C0F7FF14C0F6FF13C040
:10009800F4FF12C0F3FF11C0DAFF10C0D9FF0FC080
:1000A800E2FF0EC0E1FF0DC0EAFF0CC0E9FF0BC084
:1000B800FBFF0AC0FAFF09C0E0FF08C0E8FF07C05D
:1000C800D8FF100067EF02F00004080D11161A1F80
:1000D80023282C3035393D42464A4F53575B5F64DD
:1000E800686C7074787C7F83878B8F92969A9DA1B9
:1000F800A4A7ABAEB1B5B8BBBEC1C4C6C9CCCFD13D
:10010800D4D6D9DBDDDFE2E4E6E8E9EBEDEEF0F2A8
:10011800F3F4F6F7F8F9FAFBFCFCFDFEFEFFFFFF2F
:10012800FFFFFFFFFFFFFFFFFEFEFDFCFCFBFAF9F0
:10013800F8F7F6F4F3F2F0EEEDEBE9E8E6E4E2DFE7
:10014800DDDBD9D6D4D1CFCCC9C6C4C1BEBBB8B506
:10015800B1AEABA7A4A19D9A96928F8B8783807C22
:100168007874706C68645F5B57534F4A46423D39F8
:1001780035302C28231F1A16110D080400FCF8F33B
:10018800EFEAE6E1DDD8D4D0CBC7C3BEBAB6B1AD8D
:10019800A9A5A19C9894908C8884817D7975716EAD
:1001A8006A66635F5C5955524F4B4845423F3C3A3B
:1001B8003734312F2C2A272523211E1C1A181715EE
:1001C8001312100E0D0C0A09080706050404030291
:1001D80002010101010101010101010102020304FF
:1001E8000405060708090A0C0D0E10121315171836
:1001F8001A1C1E212325272A2C2F3134373A3C3F3D
:100208004245484B4F5255595C5F63666A6E71753B
:10021800797D8084888C9094989CA1A5A9ADB1B66D
:10022800BABEC3C7CBD0D4D8DDE1E6EAEFF3F8FC19
:10023800E8CF27F0800E6F6E6EAEFED726C043FE65
:10024800AA0E0E010E01446F050E0E010E01456F38
:10025800708A200E606E27C023FF0F010F012469EA
:10026800B80E0F010F01216F080E0F010F01226F49
:10027800080E0F010F01256F27C013FF000E0F0195
:100288000F01116F080E0F010F01126F000E606E43
:10029800000E0E010E01E26F27C0E3FE000E0E01F4
:1002A8000E01E06F080E0E010E01E16F000E0E0147
:1002B8000E01E66F0E010E01E769000E0E010E0138
:1002C800E46F080E0E010E01E56F000E0E010E011F
:1002D800FA6F0E010E01FB69000E0E010E01F86F98
:1002E800000E0E010E01F96F000E0F010F01306FA5
:1002F800EE0E0E010E01E86FE00E0E010E01E96F21
:100308000E010E01FC69E00E0E010E01FD6F000EDC
:100318006F6E768076821200E9CF1AF0EACF1BF072
:10032800E1CF1CF0E2CF1DF0D9CF1EF0DACF1FF0DD
:10033800F3CF20F0F4CF21F0F6CF22F0F7CF23F05F
:10034800F8CF24F0F5CF25F0F2BAF2A425D0335037
:10035800800A800FB40ED8B4325CD8A004D04C0EFA
:100368003226FF0E33223750800A800FB40ED8B4DD
:10037800365CD8A004D04C0E3626FF0E37223550F6
:10038800800A800FB40ED8B4345CD8A004D04C0EC8
:100398003426FF0E3522F29425C0F5FF24C0F8FF5D
:1003A80023C0F7FF22C0F6FF21C0F4FF20C0F3FFEF
:1003B8001FC0DAFF1EC0D9FF1DC0E2FF1CC0E1FF4D
:1003C8001BC0EAFF1AC0E9FF19C0FBFF18C0FAFFFB
:1003D8001100E8CF05F003C02EF02EC018FF02C0B0
:1003E8002FF02FC017FF05C030F030C016FF71CFB7
:1003F80019FF42CE1AFF41CE1BFF060E0F010F0157
:10040800156F809280828092050E92EC02F0046E45
:10041800000E066E0450180E066401D0120030AEAD
:100428000BD08082808280828082808280828082DB
:100438008082808280820AD08082808280928092AC
:100448008092809280928092809280928092809214
:10045800D8902E362F3630363136062A180E0664D6
:10046800DED71200600ED36E9B8C000ED26E2D6EFE
:10047800070E266E2D50200E1CEC01F07890789215
:10048800FC0E0F010F015D6F0F010F015C69808287
:100498009292000E826E000E946E800ED56EF28AD5
:1004A800550E0F010F01166F010E0F010F01116F8D
:1004B800040E0F010F01156F8082D08EF28EF28C20
:1004C800D38E0300FED7336A326A316A306A2F6AE4
:1004D8002E6AD00EF66E000EF76E000EF86E0CEE59
:1004E800D9F011EE68F00900F5CFEEFFE550E150C4
:1004F800FAE1E250F8E1360EF66E050EF76E000EE0
:10050800F86E00EE34F010EE04F00900F5CFEEFFBF
:10051800E550E150FAE1000136EF02F0E8CF01F0D2
:10052800210EE82EFED700F0012EFAD7120078002F
:020538003C0085
:020000040020DA
:08000000FFFFFFFFFFFFFFFF00
:020000040030CA
:0E00000015087F7CFF8981FF0FC00F800F4025
:00000001FF
